{
  "address": "0x3E7F5a5dc128291171401fbEfaC648652C6E6180",
  "abi": [
    {
      "constant": true,
      "inputs": [],
      "name": "CHANGE_VOTE_TIME_ROLE",
      "outputs": [
        {
          "name": "",
          "type": "bytes32"
        }
      ],
      "payable": false,
      "stateMutability": "view",
      "type": "function"
    },
    {
      "constant": true,
      "inputs": [
        {
          "name": "_interfaceId",
          "type": "bytes4"
        }
      ],
      "name": "supportsInterface",
      "outputs": [
        {
          "name": "",
          "type": "bool"
        }
      ],
      "payable": false,
      "stateMutability": "pure",
      "type": "function"
    },
    {
      "constant": true,
      "inputs": [],
      "name": "hasInitialized",
      "outputs": [
        {
          "name": "",
          "type": "bool"
        }
      ],
      "payable": false,
      "stateMutability": "view",
      "type": "function"
    },
    {
      "constant": false,
      "inputs": [
        {
          "name": "_executionScript",
          "type": "bytes"
        },
        {
          "name": "_context",
          "type": "bytes"
        }
      ],
      "name": "newVote",
      "outputs": [
        {
          "name": "",
          "type": "uint256"
        }
      ],
      "payable": false,
      "stateMutability": "nonpayable",
      "type": "function"
    },
    {
      "constant": true,
      "inputs": [
        {
          "name": "_voteId",
          "type": "uint256"
        }
      ],
      "name": "isVoteOpenForVoting",
      "outputs": [
        {
          "name": "",
          "type": "bool"
        }
      ],
      "payable": false,
      "stateMutability": "view",
      "type": "function"
    },
    {
      "constant": true,
      "inputs": [],
      "name": "MAX_VOTES_DELEGATION_SET_LENGTH",
      "outputs": [
        {
          "name": "",
          "type": "uint256"
        }
      ],
      "payable": false,
      "stateMutability": "view",
      "type": "function"
    },
    {
      "constant": false,
      "inputs": [
        {
          "name": "_agreement",
          "type": "address"
        }
      ],
      "name": "setAgreement",
      "outputs": [],
      "payable": false,
      "stateMutability": "nonpayable",
      "type": "function"
    },
    {
      "constant": true,
      "inputs": [
        {
          "name": "_script",
          "type": "bytes"
        }
      ],
      "name": "getEVMScriptExecutor",
      "outputs": [
        {
          "name": "",
          "type": "address"
        }
      ],
      "payable": false,
      "stateMutability": "view",
      "type": "function"
    },
    {
      "constant": true,
      "inputs": [],
      "name": "getRecoveryVault",
      "outputs": [
        {
          "name": "",
          "type": "address"
        }
      ],
      "payable": false,
      "stateMutability": "view",
      "type": "function"
    },
    {
      "constant": true,
      "inputs": [
        {
          "name": "_settingId",
          "type": "uint256"
        }
      ],
      "name": "getSetting",
      "outputs": [
        {
          "name": "voteTime",
          "type": "uint64"
        },
        {
          "name": "supportRequiredPct",
          "type": "uint64"
        },
        {
          "name": "minAcceptQuorumPct",
          "type": "uint64"
        },
        {
          "name": "delegatedVotingPeriod",
          "type": "uint64"
        },
        {
          "name": "quietEndingPeriod",
          "type": "uint64"
        },
        {
          "name": "quietEndingExtension",
          "type": "uint64"
        },
        {
          "name": "executionDelay",
          "type": "uint64"
        }
      ],
      "payable": false,
      "stateMutability": "view",
      "type": "function"
    },
    {
      "constant": true,
      "inputs": [],
      "name": "settingsLength",
      "outputs": [
        {
          "name": "",
          "type": "uint256"
        }
      ],
      "payable": false,
      "stateMutability": "view",
      "type": "function"
    },
    {
      "constant": false,
      "inputs": [
        {
          "name": "_quietEndingPeriod",
          "type": "uint64"
        },
        {
          "name": "_quietEndingExtension",
          "type": "uint64"
        }
      ],
      "name": "changeQuietEndingConfiguration",
      "outputs": [],
      "payable": false,
      "stateMutability": "nonpayable",
      "type": "function"
    },
    {
      "constant": true,
      "inputs": [],
      "name": "CHANGE_EXECUTION_DELAY_ROLE",
      "outputs": [
        {
          "name": "",
          "type": "bytes32"
        }
      ],
      "payable": false,
      "stateMutability": "view",
      "type": "function"
    },
    {
      "constant": true,
      "inputs": [],
      "name": "forwarderType",
      "outputs": [
        {
          "name": "",
          "type": "uint8"
        }
      ],
      "payable": false,
      "stateMutability": "pure",
      "type": "function"
    },
    {
      "constant": false,
      "inputs": [
        {
          "name": "_representative",
          "type": "address"
        }
      ],
      "name": "setRepresentative",
      "outputs": [],
      "payable": false,
      "stateMutability": "nonpayable",
      "type": "function"
    },
    {
      "constant": true,
      "inputs": [
        {
          "name": "_voteId",
          "type": "uint256"
        }
      ],
      "name": "getVote",
      "outputs": [
        {
          "name": "yea",
          "type": "uint256"
        },
        {
          "name": "nay",
          "type": "uint256"
        },
        {
          "name": "totalPower",
          "type": "uint256"
        },
        {
          "name": "startDate",
          "type": "uint64"
        },
        {
          "name": "snapshotBlock",
          "type": "uint64"
        },
        {
          "name": "status",
          "type": "uint8"
        },
        {
          "name": "settingId",
          "type": "uint256"
        },
        {
          "name": "actionId",
          "type": "uint256"
        },
        {
          "name": "pausedAt",
          "type": "uint64"
        },
        {
          "name": "pauseDuration",
          "type": "uint64"
        },
        {
          "name": "quietEndingExtensionDuration",
          "type": "uint64"
        },
        {
          "name": "quietEndingSnapshotSupport",
          "type": "uint8"
        },
        {
          "name": "executionScriptHash",
          "type": "bytes32"
        }
      ],
      "payable": false,
      "stateMutability": "view",
      "type": "function"
    },
    {
      "constant": false,
      "inputs": [
        {
          "name": "_evmScript",
          "type": "bytes"
        },
        {
          "name": "_context",
          "type": "bytes"
        }
      ],
      "name": "forward",
      "outputs": [],
      "payable": false,
      "stateMutability": "nonpayable",
      "type": "function"
    },
    {
      "constant": false,
      "inputs": [
        {
          "name": "_minAcceptQuorumPct",
          "type": "uint64"
        }
      ],
      "name": "changeMinAcceptQuorumPct",
      "outputs": [],
      "payable": false,
      "stateMutability": "nonpayable",
      "type": "function"
    },
    {
      "constant": true,
      "inputs": [],
      "name": "CHANGE_SUPPORT_ROLE",
      "outputs": [
        {
          "name": "",
          "type": "bytes32"
        }
      ],
      "payable": false,
      "stateMutability": "view",
      "type": "function"
    },
    {
      "constant": true,
      "inputs": [
        {
          "name": "_voteId",
          "type": "uint256"
        }
      ],
      "name": "canChallenge",
      "outputs": [
        {
          "name": "",
          "type": "bool"
        }
      ],
      "payable": false,
      "stateMutability": "view",
      "type": "function"
    },
    {
      "constant": false,
      "inputs": [
        {
          "name": "_executionDelay",
          "type": "uint64"
        }
      ],
      "name": "changeExecutionDelay",
      "outputs": [],
      "payable": false,
      "stateMutability": "nonpayable",
      "type": "function"
    },
    {
      "constant": false,
      "inputs": [
        {
          "name": "_voteId",
          "type": "uint256"
        },
        {
          "name": "_supports",
          "type": "bool"
        },
        {
          "name": "_voters",
          "type": "address[]"
        }
      ],
      "name": "voteOnBehalfOf",
      "outputs": [],
      "payable": false,
      "stateMutability": "nonpayable",
      "type": "function"
    },
    {
      "constant": true,
      "inputs": [
        {
          "name": "_voteId",
          "type": "uint256"
        }
      ],
      "name": "canClose",
      "outputs": [
        {
          "name": "",
          "type": "bool"
        }
      ],
      "payable": false,
      "stateMutability": "view",
      "type": "function"
    },
    {
      "constant": true,
      "inputs": [],
      "name": "CHANGE_DELEGATED_VOTING_PERIOD_ROLE",
      "outputs": [
        {
          "name": "",
          "type": "bytes32"
        }
      ],
      "payable": false,
      "stateMutability": "view",
      "type": "function"
    },
    {
      "constant": false,
      "inputs": [
        {
          "name": "_disputableActionId",
          "type": "uint256"
        }
      ],
      "name": "onDisputableActionAllowed",
      "outputs": [],
      "payable": false,
      "stateMutability": "nonpayable",
      "type": "function"
    },
    {
      "constant": false,
      "inputs": [
        {
          "name": "_supportRequiredPct",
          "type": "uint64"
        }
      ],
      "name": "changeSupportRequiredPct",
      "outputs": [],
      "payable": false,
      "stateMutability": "nonpayable",
      "type": "function"
    },
    {
      "constant": true,
      "inputs": [
        {
          "name": "token",
          "type": "address"
        }
      ],
      "name": "allowRecoverability",
      "outputs": [
        {
          "name": "",
          "type": "bool"
        }
      ],
      "payable": false,
      "stateMutability": "view",
      "type": "function"
    },
    {
      "constant": false,
      "inputs": [
        {
          "name": "_disputableActionId",
          "type": "uint256"
        },
        {
          "name": "_challengeId",
          "type": "uint256"
        },
        {
          "name": "_challenger",
          "type": "address"
        }
      ],
      "name": "onDisputableActionChallenged",
      "outputs": [],
      "payable": false,
      "stateMutability": "nonpayable",
      "type": "function"
    },
    {
      "constant": true,
      "inputs": [],
      "name": "appId",
      "outputs": [
        {
          "name": "",
          "type": "bytes32"
        }
      ],
      "payable": false,
      "stateMutability": "view",
      "type": "function"
    },
    {
      "constant": true,
      "inputs": [
        {
          "name": "_voteId",
          "type": "uint256"
        },
        {
          "name": "_voters",
          "type": "address[]"
        },
        {
          "name": "_representative",
          "type": "address"
        }
      ],
      "name": "canVoteOnBehalfOf",
      "outputs": [
        {
          "name": "",
          "type": "bool"
        }
      ],
      "payable": false,
      "stateMutability": "view",
      "type": "function"
    },
    {
      "constant": true,
      "inputs": [],
      "name": "CHANGE_QUIET_ENDING_ROLE",
      "outputs": [
        {
          "name": "",
          "type": "bytes32"
        }
      ],
      "payable": false,
      "stateMutability": "view",
      "type": "function"
    },
    {
      "constant": true,
      "inputs": [],
      "name": "getInitializationBlock",
      "outputs": [
        {
          "name": "",
          "type": "uint256"
        }
      ],
      "payable": false,
      "stateMutability": "view",
      "type": "function"
    },
    {
      "constant": true,
      "inputs": [],
      "name": "CHALLENGE_ROLE",
      "outputs": [
        {
          "name": "",
          "type": "bytes32"
        }
      ],
      "payable": false,
      "stateMutability": "view",
      "type": "function"
    },
    {
      "constant": true,
      "inputs": [
        {
          "name": "_voter",
          "type": "address"
        },
        {
          "name": "_representative",
          "type": "address"
        }
      ],
      "name": "isRepresentativeOf",
      "outputs": [
        {
          "name": "",
          "type": "bool"
        }
      ],
      "payable": false,
      "stateMutability": "view",
      "type": "function"
    },
    {
      "constant": false,
      "inputs": [
        {
          "name": "_voteId",
          "type": "uint256"
        },
        {
          "name": "_executionScript",
          "type": "bytes"
        }
      ],
      "name": "executeVote",
      "outputs": [],
      "payable": false,
      "stateMutability": "nonpayable",
      "type": "function"
    },
    {
      "constant": true,
      "inputs": [],
      "name": "CHANGE_QUORUM_ROLE",
      "outputs": [
        {
          "name": "",
          "type": "bytes32"
        }
      ],
      "payable": false,
      "stateMutability": "view",
      "type": "function"
    },
    {
      "constant": true,
      "inputs": [
        {
          "name": "_voteId",
          "type": "uint256"
        },
        {
          "name": "_voter",
          "type": "address"
        }
      ],
      "name": "getCastVote",
      "outputs": [
        {
          "name": "state",
          "type": "uint8"
        },
        {
          "name": "caster",
          "type": "address"
        }
      ],
      "payable": false,
      "stateMutability": "view",
      "type": "function"
    },
    {
      "constant": false,
      "inputs": [
        {
          "name": "_token",
          "type": "address"
        }
      ],
      "name": "transferToVault",
      "outputs": [],
      "payable": false,
      "stateMutability": "nonpayable",
      "type": "function"
    },
    {
      "constant": true,
      "inputs": [
        {
          "name": "_sender",
          "type": "address"
        },
        {
          "name": "_role",
          "type": "bytes32"
        },
        {
          "name": "_params",
          "type": "uint256[]"
        }
      ],
      "name": "canPerform",
      "outputs": [
        {
          "name": "",
          "type": "bool"
        }
      ],
      "payable": false,
      "stateMutability": "view",
      "type": "function"
    },
    {
      "constant": true,
      "inputs": [],
      "name": "getEVMScriptRegistry",
      "outputs": [
        {
          "name": "",
          "type": "address"
        }
      ],
      "payable": false,
      "stateMutability": "view",
      "type": "function"
    },
    {
      "constant": true,
      "inputs": [
        {
          "name": "_voteId",
          "type": "uint256"
        }
      ],
      "name": "canRepresentativesVote",
      "outputs": [
        {
          "name": "",
          "type": "bool"
        }
      ],
      "payable": false,
      "stateMutability": "view",
      "type": "function"
    },
    {
      "constant": false,
      "inputs": [
        {
          "name": "_token",
          "type": "address"
        },
        {
          "name": "_voteTime",
          "type": "uint64"
        },
        {
          "name": "_supportRequiredPct",
          "type": "uint64"
        },
        {
          "name": "_minAcceptQuorumPct",
          "type": "uint64"
        },
        {
          "name": "_delegatedVotingPeriod",
          "type": "uint64"
        },
        {
          "name": "_quietEndingPeriod",
          "type": "uint64"
        },
        {
          "name": "_quietEndingExtension",
          "type": "uint64"
        },
        {
          "name": "_executionDelay",
          "type": "uint64"
        }
      ],
      "name": "initialize",
      "outputs": [],
      "payable": false,
      "stateMutability": "nonpayable",
      "type": "function"
    },
    {
      "constant": false,
      "inputs": [
        {
          "name": "_disputableActionId",
          "type": "uint256"
        }
      ],
      "name": "onDisputableActionVoided",
      "outputs": [],
      "payable": false,
      "stateMutability": "nonpayable",
      "type": "function"
    },
    {
      "constant": false,
      "inputs": [
        {
          "name": "_delegatedVotingPeriod",
          "type": "uint64"
        }
      ],
      "name": "changeDelegatedVotingPeriod",
      "outputs": [],
      "payable": false,
      "stateMutability": "nonpayable",
      "type": "function"
    },
    {
      "constant": true,
      "inputs": [],
      "name": "getAgreement",
      "outputs": [
        {
          "name": "",
          "type": "address"
        }
      ],
      "payable": false,
      "stateMutability": "view",
      "type": "function"
    },
    {
      "constant": true,
      "inputs": [],
      "name": "CREATE_VOTES_ROLE",
      "outputs": [
        {
          "name": "",
          "type": "bytes32"
        }
      ],
      "payable": false,
      "stateMutability": "view",
      "type": "function"
    },
    {
      "constant": true,
      "inputs": [
        {
          "name": "_sender",
          "type": "address"
        },
        {
          "name": "_evmScript",
          "type": "bytes"
        }
      ],
      "name": "canForward",
      "outputs": [
        {
          "name": "",
          "type": "bool"
        }
      ],
      "payable": false,
      "stateMutability": "view",
      "type": "function"
    },
    {
      "constant": false,
      "inputs": [
        {
          "name": "_voteTime",
          "type": "uint64"
        }
      ],
      "name": "changeVoteTime",
      "outputs": [],
      "payable": false,
      "stateMutability": "nonpayable",
      "type": "function"
    },
    {
      "constant": false,
      "inputs": [
        {
          "name": "_voteId",
          "type": "uint256"
        },
        {
          "name": "_supports",
          "type": "bool"
        }
      ],
      "name": "vote",
      "outputs": [],
      "payable": false,
      "stateMutability": "nonpayable",
      "type": "function"
    },
    {
      "constant": true,
      "inputs": [
        {
          "name": "_voteId",
          "type": "uint256"
        }
      ],
      "name": "canExecute",
      "outputs": [
        {
          "name": "",
          "type": "bool"
        }
      ],
      "payable": false,
      "stateMutability": "view",
      "type": "function"
    },
    {
      "constant": true,
      "inputs": [
        {
          "name": "_voteId",
          "type": "uint256"
        },
        {
          "name": "_voter",
          "type": "address"
        }
      ],
      "name": "canVote",
      "outputs": [
        {
          "name": "",
          "type": "bool"
        }
      ],
      "payable": false,
      "stateMutability": "view",
      "type": "function"
    },
    {
      "constant": true,
      "inputs": [],
      "name": "SET_AGREEMENT_ROLE",
      "outputs": [
        {
          "name": "",
          "type": "bytes32"
        }
      ],
      "payable": false,
      "stateMutability": "view",
      "type": "function"
    },
    {
      "constant": true,
      "inputs": [],
      "name": "kernel",
      "outputs": [
        {
          "name": "",
          "type": "address"
        }
      ],
      "payable": false,
      "stateMutability": "view",
      "type": "function"
    },
    {
      "constant": true,
      "inputs": [],
      "name": "isPetrified",
      "outputs": [
        {
          "name": "",
          "type": "bool"
        }
      ],
      "payable": false,
      "stateMutability": "view",
      "type": "function"
    },
    {
      "constant": true,
      "inputs": [],
      "name": "votesLength",
      "outputs": [
        {
          "name": "",
          "type": "uint256"
        }
      ],
      "payable": false,
      "stateMutability": "view",
      "type": "function"
    },
    {
      "constant": false,
      "inputs": [
        {
          "name": "_disputableActionId",
          "type": "uint256"
        }
      ],
      "name": "onDisputableActionRejected",
      "outputs": [],
      "payable": false,
      "stateMutability": "nonpayable",
      "type": "function"
    },
    {
      "constant": true,
      "inputs": [],
      "name": "token",
      "outputs": [
        {
          "name": "",
          "type": "address"
        }
      ],
      "payable": false,
      "stateMutability": "view",
      "type": "function"
    },
    {
      "constant": true,
      "inputs": [],
      "name": "PCT_BASE",
      "outputs": [
        {
          "name": "",
          "type": "uint256"
        }
      ],
      "payable": false,
      "stateMutability": "view",
      "type": "function"
    },
    {
      "constant": true,
      "inputs": [],
      "name": "isForwarder",
      "outputs": [
        {
          "name": "",
          "type": "bool"
        }
      ],
      "payable": false,
      "stateMutability": "pure",
      "type": "function"
    },
    {
      "anonymous": false,
      "inputs": [
        {
          "indexed": false,
          "name": "settingId",
          "type": "uint256"
        }
      ],
      "name": "NewSetting",
      "type": "event"
    },
    {
      "anonymous": false,
      "inputs": [
        {
          "indexed": false,
          "name": "voteTime",
          "type": "uint64"
        }
      ],
      "name": "ChangeVoteTime",
      "type": "event"
    },
    {
      "anonymous": false,
      "inputs": [
        {
          "indexed": false,
          "name": "supportRequiredPct",
          "type": "uint64"
        }
      ],
      "name": "ChangeSupportRequired",
      "type": "event"
    },
    {
      "anonymous": false,
      "inputs": [
        {
          "indexed": false,
          "name": "minAcceptQuorumPct",
          "type": "uint64"
        }
      ],
      "name": "ChangeMinQuorum",
      "type": "event"
    },
    {
      "anonymous": false,
      "inputs": [
        {
          "indexed": false,
          "name": "delegatedVotingPeriod",
          "type": "uint64"
        }
      ],
      "name": "ChangeDelegatedVotingPeriod",
      "type": "event"
    },
    {
      "anonymous": false,
      "inputs": [
        {
          "indexed": false,
          "name": "quietEndingPeriod",
          "type": "uint64"
        },
        {
          "indexed": false,
          "name": "quietEndingExtension",
          "type": "uint64"
        }
      ],
      "name": "ChangeQuietEndingConfiguration",
      "type": "event"
    },
    {
      "anonymous": false,
      "inputs": [
        {
          "indexed": false,
          "name": "executionDelay",
          "type": "uint64"
        }
      ],
      "name": "ChangeExecutionDelay",
      "type": "event"
    },
    {
      "anonymous": false,
      "inputs": [
        {
          "indexed": true,
          "name": "voteId",
          "type": "uint256"
        },
        {
          "indexed": true,
          "name": "creator",
          "type": "address"
        },
        {
          "indexed": false,
          "name": "context",
          "type": "bytes"
        },
        {
          "indexed": false,
          "name": "executionScript",
          "type": "bytes"
        }
      ],
      "name": "StartVote",
      "type": "event"
    },
    {
      "anonymous": false,
      "inputs": [
        {
          "indexed": true,
          "name": "voteId",
          "type": "uint256"
        },
        {
          "indexed": true,
          "name": "challengeId",
          "type": "uint256"
        }
      ],
      "name": "PauseVote",
      "type": "event"
    },
    {
      "anonymous": false,
      "inputs": [
        {
          "indexed": true,
          "name": "voteId",
          "type": "uint256"
        }
      ],
      "name": "ResumeVote",
      "type": "event"
    },
    {
      "anonymous": false,
      "inputs": [
        {
          "indexed": true,
          "name": "voteId",
          "type": "uint256"
        }
      ],
      "name": "CancelVote",
      "type": "event"
    },
    {
      "anonymous": false,
      "inputs": [
        {
          "indexed": true,
          "name": "voteId",
          "type": "uint256"
        }
      ],
      "name": "ExecuteVote",
      "type": "event"
    },
    {
      "anonymous": false,
      "inputs": [
        {
          "indexed": true,
          "name": "voteId",
          "type": "uint256"
        },
        {
          "indexed": false,
          "name": "passing",
          "type": "bool"
        }
      ],
      "name": "QuietEndingExtendVote",
      "type": "event"
    },
    {
      "anonymous": false,
      "inputs": [
        {
          "indexed": true,
          "name": "voteId",
          "type": "uint256"
        },
        {
          "indexed": true,
          "name": "voter",
          "type": "address"
        },
        {
          "indexed": false,
          "name": "supports",
          "type": "bool"
        },
        {
          "indexed": false,
          "name": "caster",
          "type": "address"
        }
      ],
      "name": "CastVote",
      "type": "event"
    },
    {
      "anonymous": false,
      "inputs": [
        {
          "indexed": true,
          "name": "voter",
          "type": "address"
        },
        {
          "indexed": true,
          "name": "representative",
          "type": "address"
        }
      ],
      "name": "ChangeRepresentative",
      "type": "event"
    },
    {
      "anonymous": false,
      "inputs": [
        {
          "indexed": true,
          "name": "voteId",
          "type": "uint256"
        },
        {
          "indexed": true,
          "name": "voter",
          "type": "address"
        },
        {
          "indexed": true,
          "name": "representative",
          "type": "address"
        }
      ],
      "name": "ProxyVoteFailure",
      "type": "event"
    },
    {
      "anonymous": false,
      "inputs": [
        {
          "indexed": true,
          "name": "executor",
          "type": "address"
        },
        {
          "indexed": false,
          "name": "script",
          "type": "bytes"
        },
        {
          "indexed": false,
          "name": "input",
          "type": "bytes"
        },
        {
          "indexed": false,
          "name": "returnData",
          "type": "bytes"
        }
      ],
      "name": "ScriptResult",
      "type": "event"
    },
    {
      "anonymous": false,
      "inputs": [
        {
          "indexed": true,
          "name": "vault",
          "type": "address"
        },
        {
          "indexed": true,
          "name": "token",
          "type": "address"
        },
        {
          "indexed": false,
          "name": "amount",
          "type": "uint256"
        }
      ],
      "name": "RecoverToVault",
      "type": "event"
    },
    {
      "anonymous": false,
      "inputs": [
        {
          "indexed": true,
          "name": "agreement",
          "type": "address"
        }
      ],
      "name": "AgreementSet",
      "type": "event"
    }
  ],
  "transactionHash": "0x9a030e6e825d210650016603121a67f13d853f646159b16bf8335594c7178565",
  "args": [],
  "solcInputHash": "6568041b60ddd830c7b55f78e39fe1bf",
  "bytecode": "0x6080604052620000176401000000006200001d810204565b6200023b565b6200003064010000000062000125810204565b60408051808201909152601881527f494e49545f414c52454144595f494e495449414c495a45440000000000000000602082015290156200010c576040517f08c379a00000000000000000000000000000000000000000000000000000000081526004018080602001828103825283818151815260200191508051906020019080838360005b83811015620000d0578181015183820152602001620000b6565b50505050905090810190601f168015620000fe5780820380516001836020036101000a031916815260200191505b509250505060405180910390fd5b506200012360001964010000000062000154810204565b565b60006200014f60008051602062005d2083398151915264010000000062003fd76200023382021704565b905090565b6200016764010000000062000125810204565b60408051808201909152601881527f494e49545f414c52454144595f494e495449414c495a454400000000000000006020820152901562000206576040517f08c379a000000000000000000000000000000000000000000000000000000000815260040180806020018281038252838181518152602001915080519060200190808383600083811015620000d0578181015183820152602001620000b6565b506200023060008051602062005d2083398151915282640100000000620032176200023782021704565b50565b5490565b9055565b615ad5806200024b6000396000f3006080604052600436106102be5763ffffffff7c010000000000000000000000000000000000000000000000000000000060003504166301aab00c81146102c357806301ffc9a7146102ea5780630803fac0146103385780630a0932da1461034d578063143b8f271461037957806318fbc289146103915780631e9ae2f4146103a65780632914b9bd146103c957806332f0a3b51461043e57806340b43701146104535780634b4e45cf146104b75780635049ece9146104cc57806356fefc55146104f457806357d0c1791461050957806358c56109146105425780635a55c1f0146105635780635e754d55146106205780635eb243321461064c5780636207c9e01461066e5780636ab6802b146106835780636ecc064e1461069b57806374804316146106bd57806376740b5b146106e757806376f98942146106ff5780637ad267b6146107145780637c1d0b871461072c5780637e7db6e11461074e5780637f439ce01461076f57806380afdea81461079657806382dfcbaf146107ab5780638a11804e146107db5780638b3dd749146107f05780638f911dca1461080557806390ab08851461081a578063955131ed14610841578063979f5b4c14610865578063980704cf1461087a5780639d4941d8146108d1578063a1658fad146108f2578063a479e50814610959578063a7542d551461096e578063acec48f014610986578063b0863063146109d8578063b2deae83146109f0578063bca60cf514610a12578063be2c64d414610a27578063c0774df314610a3c578063c2e687f514610a69578063c9d27afe14610a8b578063cc63604a14610aa8578063cdb2867b14610ac0578063d35424fa14610ae4578063d4aae0c414610af9578063de4796ed14610b0e578063de4f634714610b23578063f83a151514610b38578063fc0c546a14610b50578063fc157cb414610b65578063fd64eccb14610b7a575b600080fd5b3480156102cf57600080fd5b506102d8610b8f565b60408051918252519081900360200190f35b3480156102f657600080fd5b506103247fffffffff0000000000000000000000000000000000000000000000000000000060043516610bb3565b604080519115158252519081900360200190f35b34801561034457600080fd5b50610324610c10565b34801561035957600080fd5b506102d86024600480358281019290820135918135918201910135610c39565b34801561038557600080fd5b50610324600435610da5565b34801561039d57600080fd5b506102d8610ddd565b3480156103b257600080fd5b506103c7600160a060020a0360043516610de2565b005b3480156103d557600080fd5b506040805160206004803580820135601f8101849004840285018401909552848452610422943694929360249392840191908190840183828082843750949750610fc39650505050505050565b60408051600160a060020a039092168252519081900360200190f35b34801561044a57600080fd5b506104226110c2565b34801561045f57600080fd5b5061046b600435611153565b6040805167ffffffffffffffff988916815296881660208801529487168686015292861660608601529085166080850152841660a084015290921660c082015290519081900360e00190f35b3480156104c357600080fd5b506102d86111e0565b3480156104d857600080fd5b506103c767ffffffffffffffff600435811690602435166111e6565b34801561050057600080fd5b506102d86112ce565b34801561051557600080fd5b5061051e6112f2565b6040518082600281111561052e57fe5b60ff16815260200191505060405180910390f35b34801561054e57600080fd5b506103c7600160a060020a03600435166112f7565b34801561056f57600080fd5b5061057b6004356113ea565b604080518e8152602081018e90529081018c905267ffffffffffffffff808c1660608301528a16608082015260a081018960038111156105b757fe5b60ff168152602081018990526040810188905267ffffffffffffffff80881660608301528681166080830152851660a082015260c0018360028111156105f957fe5b60ff1681526020810192909252506040805191829003019c509a5050505050505050505050f35b34801561062c57600080fd5b506103c760246004803582810192908201359181359182019101356114f5565b34801561065857600080fd5b506103c767ffffffffffffffff6004351661161d565b34801561067a57600080fd5b506102d86116ff565b34801561068f57600080fd5b50610324600435611723565b3480156106a757600080fd5b506103c767ffffffffffffffff60043516611770565b3480156106c957600080fd5b506103c760048035906024803515159160443591820191013561184c565b3480156106f357600080fd5b50610324600435611b33565b34801561070b57600080fd5b506102d8611b7e565b34801561072057600080fd5b506103c7600435611ba2565b34801561073857600080fd5b506103c767ffffffffffffffff60043516611c4a565b34801561075a57600080fd5b50610324600160a060020a0360043516611d26565b34801561077b57600080fd5b506103c7600435602435600160a060020a0360443516611d2c565b3480156107a257600080fd5b506102d8611dd8565b3480156107b757600080fd5b50610324600480359060248035908101910135600160a060020a0360443516611e08565b3480156107e757600080fd5b506102d8611f3e565b3480156107fc57600080fd5b506102d8611f62565b34801561081157600080fd5b506102d8611f8d565b34801561082657600080fd5b50610324600160a060020a0360043581169060243516611fb1565b34801561084d57600080fd5b506103c7600480359060248035908101910135612053565b34801561087157600080fd5b506102d8612268565b34801561088657600080fd5b5061089e600435600160a060020a036024351661228c565b604051808360028111156108ae57fe5b60ff168152600160a060020a039092166020830152506040805191829003019150f35b3480156108dd57600080fd5b506103c7600160a060020a03600435166122bc565b3480156108fe57600080fd5b506040805160206004604435818101358381028086018501909652808552610324958335600160a060020a031695602480359636969560649593949201929182918501908490808284375094975061254b9650505050505050565b34801561096557600080fd5b506104226126b4565b34801561097a57600080fd5b50610324600435612769565b34801561099257600080fd5b506103c7600160a060020a036004351667ffffffffffffffff60243581169060443581169060643581169060843581169060a43581169060c43581169060e43516612780565b3480156109e457600080fd5b506103c7600435612895565b3480156109fc57600080fd5b506103c767ffffffffffffffff6004351661293a565b348015610a1e57600080fd5b50610422612a16565b348015610a3357600080fd5b506102d8612a20565b348015610a4857600080fd5b5061032460048035600160a060020a03169060248035908101910135612a44565b348015610a7557600080fd5b506103c767ffffffffffffffff60043516612a80565b348015610a9757600080fd5b506103c76004356024351515612b5c565b348015610ab457600080fd5b50610324600435612c08565b348015610acc57600080fd5b50610324600435600160a060020a0360243516612c1b565b348015610af057600080fd5b506102d8612c2f565b348015610b0557600080fd5b50610422612c53565b348015610b1a57600080fd5b50610324612c7e565b348015610b2f57600080fd5b506102d8612c91565b348015610b4457600080fd5b506103c7600435612c97565b348015610b5c57600080fd5b50610422612d3c565b348015610b7157600080fd5b506102d8612d4b565b348015610b8657600080fd5b50610324612d57565b7fbc5d8ebc0830a2fed8649987b8263de1397b7fa892f3b87dc2d8cad35c691f8681565b6000610bbe82612d5c565b80610c0a57507fffffffff0000000000000000000000000000000000000000000000000000000082167ff3d3bb5100000000000000000000000000000000000000000000000000000000145b92915050565b600080610c1b611f62565b90508015801590610c33575080610c30612db5565b10155b91505090565b60007fe7dcd7275292e064d090fbc5f3bd7995be23b502c1fed5cd94cfddbbdcd32bbc610c6533612db9565b610c7033838361254b565b60408051808201909152600f81527f4150505f415554485f4641494c454400000000000000000000000000000000006020820152901515610d325760405160e560020a62461bcd0281526004018080602001828103825283818151815260200191508051906020019080838360005b83811015610cf7578181015183820152602001610cdf565b50505050905090810190601f168015610d245780820380516001836020036101000a031916815260200191505b509250505060405180910390fd5b50610d9a87878080601f0160208091040260200160405190810160405280939291908181526020018383808284375050604080516020601f8d018190048102820181019092528b815294508b93508a9250829150840183828082843750612dcd945050505050565b979650505050505050565b6000806000610db38461312a565b600481015460009081526002602052604090209092509050610dd582826131c8565b949350505050565b604681565b604080516000808252602082019092527f8dad640ab1b088990c972676ada708447affc660890ec9fc9a5483241c49f03690610e21903390839061254b565b60408051808201909152600f81527f4150505f415554485f4641494c454400000000000000000000000000000000006020820152901515610ea75760405160e560020a62461bcd02815260040180806020018281038252838181518152602001915080519060200190808383600083811015610cf7578181015183820152602001610cdf565b50610eb06131ec565b9150600160a060020a038216158015610ed15750600160a060020a03831615155b6040805190810160405280602081526020017f44495350555441424c455f41475245454d454e545f53544154455f494e56414c815250901515610f595760405160e560020a62461bcd02815260040180806020018281038252838181518152602001915080519060200190808383600083811015610cf7578181015183820152602001610cdf565b50610f8a7f6dbe80ccdeafbf5f3fff5738b224414f85e9370da36f61bf21c65159df7409e98463ffffffff61321716565b604051600160a060020a038416907f64d4a120bf365888d0b3f10e4d7deb8415919eaad62ee6fb5f5619082d6f641890600090a2505050565b6000610fcd6126b4565b600160a060020a03166304bf2a7f836040518263ffffffff167c01000000000000000000000000000000000000000000000000000000000281526004018080602001828103825283818151815260200191508051906020019080838360005b8381101561104457818101518382015260200161102c565b50505050905090810190601f1680156110715780820380516001836020036101000a031916815260200191505b5092505050602060405180830381600087803b15801561109057600080fd5b505af11580156110a4573d6000803e3d6000fd5b505050506040513d60208110156110ba57600080fd5b505192915050565b60006110cc612c53565b600160a060020a03166332f0a3b56040518163ffffffff167c0100000000000000000000000000000000000000000000000000000000028152600401602060405180830381600087803b15801561112257600080fd5b505af1158015611136573d6000803e3d6000fd5b505050506040513d602081101561114c57600080fd5b5051905090565b6000806000806000806000806111688961321b565b805460019091015467ffffffffffffffff8083169c6801000000000000000080850483169d5070010000000000000000000000000000000080860484169d50780100000000000000000000000000000000000000000000000090950483169b508383169a508304821698509290910416945092505050565b60015481565b60007f4f885d966bcd49734218a6e280d58c840b86e8cc13610b21ebd46f0b1da362c261122067ffffffffffffffff8086169085166132b9565b61122b33838361254b565b60408051808201909152600f81527f4150505f415554485f4641494c4544000000000000000000000000000000000060208201529015156112b15760405160e560020a62461bcd02815260040180806020018281038252838181518152602001915080519060200190808383600083811015610cf7578181015183820152602001610cdf565b506112ba613314565b92506112c783868661344b565b5050505050565b7f5e3a3edc315e366a0cc5c94ca94a8f9bbc2f1feebb2ef7704bfefcff0cdc4ee781565b600290565b6112ff610c10565b60408051808201909152601481527f494e49545f4e4f545f494e495449414c495a454400000000000000000000000060208201529015156113855760405160e560020a62461bcd02815260040180806020018281038252838181518152602001915080519060200190808383600083811015610cf7578181015183820152602001610cdf565b5033600081815260056020526040808220805473ffffffffffffffffffffffffffffffffffffffff1916600160a060020a03861690811790915590519092917f3b734cbbc757d28ca321c79f67fd0b3c625ca41fc7aa1aa9cca32e6d6fd0f81091a350565b6000806000806000806000806000806000806000806114088f61312a565b905080600001549d5080600101549c5080600201549b508060030160009054906101000a900467ffffffffffffffff169a508060030160089054906101000a900467ffffffffffffffff1699508060030160109054906101000a900460ff16985080600401549750806005015496508060060160009054906101000a900467ffffffffffffffff1695508060060160089054906101000a900467ffffffffffffffff1694508060060160109054906101000a900467ffffffffffffffff1693508060060160189054906101000a900460ff169250806007015491505091939597999b9d90929496989a9c50565b61152f3385858080601f0160208091040260200160405190810160405280939291908181526020018383808284375061356b945050505050565b60408051808201909152601581527f564f54494e475f43414e4e4f545f464f5257415244000000000000000000000060208201529015156115b55760405160e560020a62461bcd02815260040180806020018281038252838181518152602001915080519060200190808383600083811015610cf7578181015183820152602001610cdf565b506112c784848080601f0160208091040260200160405190810160405280939291908181526020018383808284375050604080516020601f8a018190048102820181019092528881529450889350879250829150840183828082843750612dcd945050505050565b60007fa3f675280fb3c54662067f92659ca1ee3ef7c1a7f2a6ff03a5c4228aa26b6a8261165367ffffffffffffffff84166135c8565b61165e33838361254b565b60408051808201909152600f81527f4150505f415554485f4641494c4544000000000000000000000000000000000060208201529015156116e45760405160e560020a62461bcd02815260040180806020018281038252838181518152602001915080519060200190808383600083811015610cf7578181015183820152602001610cdf565b506116ed613314565b92506116f98385613609565b50505050565b7ff3a5f71f3cb50dae9454dd13cdf0fd1b559f7e20d63c08902592486e6d460c9081565b60008061172f8361312a565b600681015490915067ffffffffffffffff161580156117675750600481015460009081526002602052604090206117679082906131c8565b91505b50919050565b60007f5e3a3edc315e366a0cc5c94ca94a8f9bbc2f1feebb2ef7704bfefcff0cdc4ee76117a667ffffffffffffffff84166135c8565b6117b133838361254b565b60408051808201909152600f81527f4150505f415554485f4641494c4544000000000000000000000000000000000060208201529015156118375760405160e560020a62461bcd02815260040180806020018281038252838181518152602001915080519060200190808383600083811015610cf7578181015183820152602001610cdf565b50611840613314565b92506116f98385613727565b6040805180820190915260208082527f564f54494e475f44454c4547415445535f455843454544535f4d41585f4c454e908201526000908190819060468511156118db5760405160e560020a62461bcd02815260040180806020018281038252838181518152602001915080519060200190808383600083811015610cf7578181015183820152602001610cdf565b506118e58761312a565b92506118f0836137a6565b60408051808201909152601d81527f564f54494e475f504153545f5245505f564f54494e475f57494e444f5700000060208201529015156119765760405160e560020a62461bcd02815260040180806020018281038252838181518152602001915080519060200190808383600083811015610cf7578181015183820152602001610cdf565b50600091505b83821015611b2a5784848381811061199057fe5b90506020020135600160a060020a031690506119ac83826137dd565b60408051808201909152601281527f564f54494e475f43414e4e4f545f564f544500000000000000000000000000006020820152901515611a325760405160e560020a62461bcd02815260040180806020018281038252838181518152602001915080519060200190808383600083811015610cf7578181015183820152602001610cdf565b50611a3d813361389d565b60408051808201909152601981527f564f54494e475f4e4f545f524550524553454e544154495645000000000000006020820152901515611ac35760405160e560020a62461bcd02815260040180806020018281038252838181518152602001915080519060200190808383600083811015610cf7578181015183820152602001610cdf565b50611ace83826138bf565b1515611ae657611ae183888884336138e0565b611b1f565b6040513390600160a060020a0383169089907fbf94009f3cb6ffcb2eea43b502ff43295b654a96dfcdc68592c90397148ec25690600090a45b60019091019061197c565b50505050505050565b600080611b3f8361312a565b9050611b4a81613b4a565b80611b595750611b5981613b7c565b8015611767575060048101546000908152600260205260409020611767908290613b85565b7f59ba415d96e104e6483d76b79d9cd09941d04e229adcd62d7dc672c93975a19d81565b33611bab6131ec565b600160a060020a0316146040805190810160405280601f81526020017f44495350555441424c455f53454e4445525f4e4f545f41475245454d454e5400815250901515611c3d5760405160e560020a62461bcd02815260040180806020018281038252838181518152602001915080519060200190808383600083811015610cf7578181015183820152602001610cdf565b50611c4781613bac565b50565b60007ff3a5f71f3cb50dae9454dd13cdf0fd1b559f7e20d63c08902592486e6d460c90611c8067ffffffffffffffff84166135c8565b611c8b33838361254b565b60408051808201909152600f81527f4150505f415554485f4641494c454400000000000000000000000000000000006020820152901515611d115760405160e560020a62461bcd02815260040180806020018281038252838181518152602001915080519060200190808383600083811015610cf7578181015183820152602001610cdf565b50611d1a613314565b92506116f98385613cfe565b50600190565b33611d356131ec565b600160a060020a0316146040805190810160405280601f81526020017f44495350555441424c455f53454e4445525f4e4f545f41475245454d454e5400815250901515611dc75760405160e560020a62461bcd02815260040180806020018281038252838181518152602001915080519060200190808383600083811015610cf7578181015183820152602001610cdf565b50611dd3838383613eac565b505050565b6000611e037fd625496217aa6a3453eecb9c3489dc5a53e6c67b444329ea2b2cbc9ff547639b613fd7565b905090565b6040805180820190915260208082527f564f54494e475f44454c4547415445535f455843454544535f4d41585f4c454e908201526000908190819081906046871115611e995760405160e560020a62461bcd02815260040180806020018281038252838181518152602001915080519060200190808383600083811015610cf7578181015183820152602001610cdf565b50611ea38861312a565b9250611eae836137a6565b1515611ebd5760009350611f33565b600091505b85821015611f2e57868683818110611ed657fe5b90506020020135600160a060020a03169050611ef283826137dd565b1580611f055750611f03818661389d565b155b80611f155750611f1583826138bf565b15611f235760009350611f33565b600190910190611ec2565b600193505b505050949350505050565b7f4f885d966bcd49734218a6e280d58c840b86e8cc13610b21ebd46f0b1da362c281565b6000611e037febb05b386a8d34882b8711d156f463690983dc47815980fb82aeeff1aa43579e613fd7565b7fef025787d7cd1a96d9014b8dc7b44899b8c1350859fb9e1e05f5a546dd65158d81565b6000611fbb610c10565b60408051808201909152601481527f494e49545f4e4f545f494e495449414c495a454400000000000000000000000060208201529015156120415760405160e560020a62461bcd02815260040180806020018281038252838181518152602001915080519060200190808383600083811015610cf7578181015183820152602001610cdf565b5061204c838361389d565b9392505050565b600061205e8461312a565b905061206981613fdf565b60408051808201909152601581527f564f54494e475f43414e4e4f545f45584543555445000000000000000000000060208201529015156120ef5760405160e560020a62461bcd02815260040180806020018281038252838181518152602001915080519060200190808383600083811015610cf7578181015183820152602001610cdf565b50828260405180838380828437604080519390910183900383206007880154848301909252601f84527f564f54494e475f494e56414c49445f455845435554494f4e5f53435249505400602085015292955090911492506121989150505760405160e560020a62461bcd02815260040180806020018281038252838181518152602001915080519060200190808383600083811015610cf7578181015183820152602001610cdf565b5060038101805470ff00000000000000000000000000000000191670030000000000000000000000000000000017905560058101546121d69061404a565b61223683838080601f01602080910402602001604051908101604052809392919081815260200183838082843750506040805160008082526020820190925294509250612221915050565b506040805160008152602081019091526140d4565b5060405184907fbf8e2b108bb7c980e08903a8a46527699d5e84905a082d56dacb4150725c8cab90600090a250505050565b7fa3f675280fb3c54662067f92659ca1ee3ef7c1a7f2a6ff03a5c4228aa26b6a8281565b600080600061229a8561312a565b90506122a68185614703565b92506122b28185614725565b9150509250929050565b60008060006122ca84611d26565b60408051808201909152601281527f5245434f5645525f444953414c4c4f574544000000000000000000000000000060208201529015156123505760405160e560020a62461bcd02815260040180806020018281038252838181518152602001915080519060200190808383600083811015610cf7578181015183820152602001610cdf565b506123596110c2565b925061236483614778565b60408051808201909152601a81527f5245434f5645525f5641554c545f4e4f545f434f4e545241435400000000000060208201529015156123ea5760405160e560020a62461bcd02815260040180806020018281038252838181518152602001915080519060200190808383600083811015610cf7578181015183820152602001610cdf565b50600160a060020a038416151561243b5760405130319250600160a060020a0384169083156108fc029084906000818181858888f19350505050158015612435573d6000803e3d6000fd5b506124fa565b5082612456600160a060020a0382163063ffffffff61479e16565b9150612472600160a060020a038216848463ffffffff6148b316565b60408051808201909152601d81527f5245434f5645525f544f4b454e5f5452414e534645525f4641494c454400000060208201529015156124f85760405160e560020a62461bcd02815260040180806020018281038252838181518152602001915080519060200190808383600083811015610cf7578181015183820152602001610cdf565b505b83600160a060020a031683600160a060020a03167f596caf56044b55fb8c4ca640089bbc2b63cae3e978b851f5745cbb7c5b288e02846040518082815260200191505060405180910390a350505050565b600080612556610c10565b151561256557600091506126ac565b61256d612c53565b9050600160a060020a038116151561258857600091506126ac565b80600160a060020a031663fdef91068630876125a38861493e565b6040517c010000000000000000000000000000000000000000000000000000000063ffffffff8716028152600160a060020a03808616600483019081529085166024830152604482018490526080606483019081528351608484015283519192909160a490910190602085019080838360005b8381101561262e578181015183820152602001612616565b50505050905090810190601f16801561265b5780820380516001836020036101000a031916815260200191505b5095505050505050602060405180830381600087803b15801561267d57600080fd5b505af1158015612691573d6000803e3d6000fd5b505050506040513d60208110156126a757600080fd5b505191505b509392505050565b6000806126bf612c53565b604080517fbe00bbd80000000000000000000000000000000000000000000000000000000081527fd6f028ca0e8edb4a8c9757ca4fdccab25fa1e0317da1188108f7d2dee14902fb60048201527fddbcfd564f642ab5627cf68b9b7d374fb4f8a36e941a75d89c87998cef03bd6160248201529051600160a060020a03929092169163be00bbd8916044808201926020929091908290030181600087803b15801561109057600080fd5b6000806127758361312a565b9050611767816137a6565b600061278a614948565b61279389614778565b60408051808201909152601981527f564f54494e475f544f4b454e5f4e4f545f434f4e54524143540000000000000060208201529015156128195760405160e560020a62461bcd02815260040180806020018281038252838181518152602001915080519060200190808383600083811015610cf7578181015183820152602001610cdf565b506000805473ffffffffffffffffffffffffffffffffffffffff1916600160a060020a038b1617905561284a614a10565b5090506128578189614a63565b6128618188613cfe565b61286b8187613609565b6128758186614b49565b61288081858561344b565b61288a8183613727565b505050505050505050565b3361289e6131ec565b600160a060020a0316146040805190810160405280601f81526020017f44495350555441424c455f53454e4445525f4e4f545f41475245454d454e54008152509015156129305760405160e560020a62461bcd02815260040180806020018281038252838181518152602001915080519060200190808383600083811015610cf7578181015183820152602001610cdf565b50611c4781614c62565b60007f59ba415d96e104e6483d76b79d9cd09941d04e229adcd62d7dc672c93975a19d61297067ffffffffffffffff84166135c8565b61297b33838361254b565b60408051808201909152600f81527f4150505f415554485f4641494c454400000000000000000000000000000000006020820152901515612a015760405160e560020a62461bcd02815260040180806020018281038252838181518152602001915080519060200190808383600083811015610cf7578181015183820152602001610cdf565b50612a0a613314565b92506116f98385614b49565b6000611e036131ec565b7fe7dcd7275292e064d090fbc5f3bd7995be23b502c1fed5cd94cfddbbdcd32bbc81565b6000610dd58484848080601f0160208091040260200160405190810160405280939291908181526020018383808284375061356b945050505050565b60007fbc5d8ebc0830a2fed8649987b8263de1397b7fa892f3b87dc2d8cad35c691f86612ab667ffffffffffffffff84166135c8565b612ac133838361254b565b60408051808201909152600f81527f4150505f415554485f4641494c454400000000000000000000000000000000006020820152901515612b475760405160e560020a62461bcd02815260040180806020018281038252838181518152602001915080519060200190808383600083811015610cf7578181015183820152602001610cdf565b50612b50613314565b92506116f98385614a63565b6000612b678361312a565b9050612b738133614c6b565b60408051808201909152601281527f564f54494e475f43414e4e4f545f564f544500000000000000000000000000006020820152901515612bf95760405160e560020a62461bcd02815260040180806020018281038252838181518152602001915080519060200190808383600083811015610cf7578181015183820152602001610cdf565b50611dd38184843360006138e0565b6000610c0a612c168361312a565b613fdf565b600061204c612c298461312a565b83614c6b565b7f8dad640ab1b088990c972676ada708447affc660890ec9fc9a5483241c49f03681565b6000611e037f4172f0f7d2289153072b0a6ca36959e0cbe2efc3afe50fc81636caa96338137b613fd7565b6000600019612c8b611f62565b14905090565b60035481565b33612ca06131ec565b600160a060020a0316146040805190810160405280601f81526020017f44495350555441424c455f53454e4445525f4e4f545f41475245454d454e5400815250901515612d325760405160e560020a62461bcd02815260040180806020018281038252838181518152602001915080519060200190808383600083811015610cf7578181015183820152602001610cdf565b50611c4781614cc7565b600054600160a060020a031681565b670de0b6b3a764000081565b600190565b6000612d6782614e16565b80610c0a5750507fffffffff00000000000000000000000000000000000000000000000000000000167f54053e6c000000000000000000000000000000000000000000000000000000001490565b4390565b6060610c0a82600160a060020a03166135c8565b6000806000806001612ddd614e60565b60008054604080517f981b24d00000000000000000000000000000000000000000000000000000000081529490930367ffffffffffffffff811660048601529251929650600160a060020a03169263981b24d09260248083019360209383900390910190829087803b158015612e5257600080fd5b505af1158015612e66573d6000803e3d6000fd5b505050506040513d6020811015612e7c57600080fd5b505160408051808201909152601c81527f564f54494e475f4e4f5f544f54414c5f564f54494e475f504f57455200000000602082015290925060008311612f085760405160e560020a62461bcd02815260040180806020018281038252838181518152602001915080519060200190808383600083811015610cf7578181015183820152602001610cdf565b50506003805460018101909155600081815260046020526040902060028101839055909350612f35614e72565b60038201805467ffffffffffffffff191667ffffffffffffffff928316176fffffffffffffffff0000000000000000191668010000000000000000928616929092029190911770ff0000000000000000000000000000000019169055612f99614e7f565b60048201556040518651879190819060208401908083835b60208310612fd05780518252601f199092019160209182019101612fb1565b5181516020939093036101000a6000190180199091169216919091179052604051920182900390912060078501555061300e91508590508633614e89565b816005018190555033600160a060020a0316847fd7bf7ccb2e4cfc6f0a0a257caed8badff9e8edf074f4d8d53d90cac9c515a6838789604051808060200180602001838103835285818151815260200191508051906020019080838360005b8381101561308557818101518382015260200161306d565b50505050905090810190601f1680156130b25780820380516001836020036101000a031916815260200191505b50838103825284518152845160209182019186019080838360005b838110156130e55781810151838201526020016130cd565b50505050905090810190601f1680156131125780820380516001836020036101000a031916815260200191505b5094505050505060405180910390a350505092915050565b60035460408051808201909152600e81527f564f54494e475f4e4f5f564f5445000000000000000000000000000000000000602082015260009183106131b55760405160e560020a62461bcd02815260040180806020018281038252838181518152602001915080519060200190808383600083811015610cf7578181015183820152602001610cdf565b5050600090815260046020526040902090565b60006131d383613b4a565b801561204c57506131e48383613b85565b159392505050565b6000611e037f6dbe80ccdeafbf5f3fff5738b224414f85e9370da36f61bf21c65159df7409e9613fd7565b9055565b60015460408051808201909152601d81527f564f54494e475f53455454494e475f444f45535f4e4f545f4558495354000000602082015260009183106132a65760405160e560020a62461bcd02815260040180806020018281038252838181518152602001915080519060200190808383600083811015610cf7578181015183820152602001610cdf565b5050600090815260026020526040902090565b6040805160028082526060808301845292602083019080388339019050509050828160008151811015156132e957fe5b60209081029091010152805182908290600190811061330457fe5b6020908102909101015292915050565b600080600080613322614a10565b925092506133326001830361321b565b8054845467ffffffffffffffff1990811667ffffffffffffffff9283161780875583546801000000000000000090819004841681026fffffffffffffffff000000000000000019928316178089558554700100000000000000000000000000000000908190048616810277ffffffffffffffff000000000000000000000000000000001992831617808b55875478010000000000000000000000000000000000000000000000009081900488160277ffffffffffffffffffffffffffffffffffffffffffffffff909116178a5560018088018054918c0180549097169188169190911780875581548590048816909402939094169290921780855592548290049094160292169190911790559293508392905050505090565b825460408051808201909152601f81527f564f54494e475f494e56414c49445f51554945545f454e445f504552494f440060208201529067ffffffffffffffff90811690841611156134e25760405160e560020a62461bcd02815260040180806020018281038252838181518152602001915080519060200190808383600083811015610cf7578181015183820152602001610cdf565b5060018301805467ffffffffffffffff191667ffffffffffffffff8481169182176fffffffffffffffff00000000000000001916680100000000000000009185169182021790925560408051918252602082019290925281517fa194c49d80327ca6b93c94de63248b209eabfdf2911b0b258286473d93df92a4929181900390910190a1505050565b6000806135766131ec565b9050600160a060020a038116158015906135be57506135be847fe7dcd7275292e064d090fbc5f3bd7995be23b502c1fed5cd94cfddbbdcd32bbc6135b982612db9565b61254b565b91505b5092915050565b60408051600180825281830190925260609160208083019080388339019050509050818160008151811015156135fa57fe5b60209081029091010152919050565b815460408051808201909152601c81527f564f54494e475f4348414e47455f51554f52554d5f544f4f5f4249470000000060208201529067ffffffffffffffff68010000000000000000909104811690831611156136ac5760405160e560020a62461bcd02815260040180806020018281038252838181518152602001915080519060200190808383600083811015610cf7578181015183820152602001610cdf565b50815467ffffffffffffffff8216700100000000000000000000000000000000810277ffffffffffffffff000000000000000000000000000000001990921691909117835560408051918252517f3172f2e9273c729c2a47cc8bf7e7f18506e3e3035126d562602bd2155bc78a509181900360200190a15050565b60018201805467ffffffffffffffff8316700100000000000000000000000000000000810277ffffffffffffffff00000000000000000000000000000000199092169190911790915560408051918252517fa917ba4499a7580dd381d63de169b0c5bad43e872db28bbac0f06a1e0047e75d9181900360200190a15050565b60006137b182613b4a565b8015610c0a5750600482015460009081526002602052604090206137d6908390614f7c565b1592915050565b600080546003840154604080517f4ee2cd7e000000000000000000000000000000000000000000000000000000008152600160a060020a0386811660048301526801000000000000000090930467ffffffffffffffff166024820152905184939290921691634ee2cd7e9160448082019260209290919082900301818787803b15801561386957600080fd5b505af115801561387d573d6000803e3d6000fd5b505050506040513d602081101561389357600080fd5b5051119392505050565b600160a060020a03918216600090815260056020526040902054821691161490565b6000806138cc8484614703565b60028111156138d757fe5b14159392505050565b6004850154600090815260026020526040812090808080806139028b87615055565b15613912576139128b878c61511c565b8a5460018c01546000805460038f0154604080517f4ee2cd7e000000000000000000000000000000000000000000000000000000008152600160a060020a038f811660048301526801000000000000000090930467ffffffffffffffff1660248201529051959a509398501692634ee2cd7e926044808201936020939283900390910190829087803b1580156139a757600080fd5b505af11580156139bb573d6000803e3d6000fd5b505050506040513d60208110156139d157600080fd5b5051600160a060020a038916600090815260088d01602052604090208054919450925060ff1690506001816002811115613a0757fe5b1415613a2457613a1d858463ffffffff6152b216565b9450613a4b565b6002816002811115613a3257fe5b1415613a4b57613a48848463ffffffff6152b216565b93505b8815613a6857613a61858463ffffffff61534616565b9450613a7b565b613a78848463ffffffff61534616565b93505b848b5560018b01849055613a8e896153d4565b8254839060ff19166001836002811115613aa457fe5b02179055508154600160a060020a0380891661010081027fffffffffffffffffffffff0000000000000000000000000000000000000000ff9093169290921784558916908b907f1c3607eb5a3925b4a4cae4e90a9345b2a2955daeac124e761d05e5288df11963908c9015613b19578a613b1b565b8b5b604080519215158352600160a060020a0390911660208301528051918290030190a35050505050505050505050565b6000805b600383810154700100000000000000000000000000000000900460ff1690811115613b7557fe5b1492915050565b60006003613b4e565b6000613b9183836153ea565b67ffffffffffffffff16613ba3615459565b10159392505050565b6000613bb78261312a565b9050613bc28161545d565b60408051808201909152601681527f564f54494e475f564f54455f4e4f545f504155534544000000000000000000006020820152901515613c485760405160e560020a62461bcd02815260040180806020018281038252838181518152602001915080519060200190808383600083811015610cf7578181015183820152602001610cdf565b5060038101805470ff00000000000000000000000000000000191690556006810154613c969067ffffffffffffffff16613c80614e72565b67ffffffffffffffff169063ffffffff61546616565b60068201805467ffffffffffffffff9290921668010000000000000000026fffffffffffffffff00000000000000001990921691909117905560405182907f91f598d24ad2394e84049626d590e9a75dc54508a6e7bf88895d335eb9f395dd90600090a25050565b815460408051808201909152601f81527f564f54494e475f4348414e47455f535550504f52545f544f4f5f534d414c4c0060208201529067ffffffffffffffff808416700100000000000000000000000000000000909204161115613da85760405160e560020a62461bcd02815260040180806020018281038252838181518152602001915080519060200190808383600083811015610cf7578181015183820152602001610cdf565b5060408051808201909152601d81527f564f54494e475f4348414e47455f535550504f52545f544f4f5f4249470000006020820152670de0b6b3a764000067ffffffffffffffff831610613e415760405160e560020a62461bcd02815260040180806020018281038252838181518152602001915080519060200190808383600083811015610cf7578181015183820152602001610cdf565b50815467ffffffffffffffff82166801000000000000000081026fffffffffffffffff00000000000000001990921691909117835560408051918252517f903b617f7f36eb047a29b89d1bf7885fdae31d250c3320fccf11d045c11b396e9181900360200190a15050565b6000613eb78461312a565b9050613ec281613b4a565b60408051808201909152601881527f564f54494e475f43414e4e4f545f50415553455f564f544500000000000000006020820152901515613f485760405160e560020a62461bcd02815260040180806020018281038252838181518152602001915080519060200190808383600083811015610cf7578181015183820152602001610cdf565b5060038101805470ff000000000000000000000000000000001916700100000000000000000000000000000000179055613f80614e72565b60068201805467ffffffffffffffff191667ffffffffffffffff92909216919091179055604051839085907f0acb8ef0fdffe8e5404a8511f8f4c38ed4bd1643888377569fc2d50d5ee8d83a90600090a350505050565b5490565b5490565b600080613feb83613b4a565b1515613ffa576000915061176a565b50600482015460009081526002602052604090206140188382613b85565b1515614027576000915061176a565b61403183826154ff565b1515614040576000915061176a565b6117678382615561565b60006140546155e0565b905080600160a060020a0316633b92da72836040518263ffffffff167c010000000000000000000000000000000000000000000000000000000002815260040180828152602001915050600060405180830381600087803b1580156140b857600080fd5b505af11580156140cc573d6000803e3d6000fd5b505050505050565b60606000806060806140e4610c10565b60408051808201909152601481527f494e49545f4e4f545f494e495449414c495a4544000000000000000000000000602082015290151561416a5760405160e560020a62461bcd02815260040180806020018281038252838181518152602001915080519060200190808383600083811015610cf7578181015183820152602001610cdf565b50600080614176612c53565b9150614180611dd8565b905061418b8a610fc3565b60408051808201909152601b81527f45564d52554e5f4558454355544f525f554e415641494c41424c4500000000006020820152909650600160a060020a038716151561421d5760405160e560020a62461bcd02815260040180806020018281038252838181518152602001915080519060200190808383600083811015610cf7578181015183820152602001610cdf565b506040516060602482019081528b5160848301528b517f279cea3500000000000000000000000000000000000000000000000000000000975087928d928d928d9282916044820191606481019160a490910190602089019080838360005b8381101561429357818101518382015260200161427b565b50505050905090810190601f1680156142c05780820380516001836020036101000a031916815260200191505b50848103835286518152865160209182019188019080838360005b838110156142f35781810151838201526020016142db565b50505050905090810190601f1680156143205780820380516001836020036101000a031916815260200191505b508481038252855181528551602091820191808801910280838360005b8381101561435557818101518382015260200161433d565b505050509050019650505050505050604051602081830303815290604052907bffffffffffffffffffffffffffffffffffffffffffffffffffffffff19166020820180517bffffffffffffffffffffffffffffffffffffffffffffffffffffffff83818316178352505050509350600080855160208701895af4604051935080801561444357603f3d1180156143f85760203d03806020883e860160405261443d565b60e560020a62461bcd02865260206004870152601e60248701527f45564d52554e5f4558454355544f525f494e56414c49445f52455455524e00006044870152606486fd5b5061444c565b3d6000863e3d85fd5b505085600160a060020a03167f5229a5dba83a54ae8cb5b51bdd6de9474cacbe9dd332f5185f3a4f4f2e3f4ad98b8b8660405180806020018060200180602001848103845287818151815260200191508051906020019080838360005b838110156144c15781810151838201526020016144a9565b50505050905090810190601f1680156144ee5780820380516001836020036101000a031916815260200191505b50848103835286518152865160209182019188019080838360005b83811015614521578181015183820152602001614509565b50505050905090810190601f16801561454e5780820380516001836020036101000a031916815260200191505b50848103825285518152855160209182019187019080838360005b83811015614581578181015183820152602001614569565b50505050905090810190601f1680156145ae5780820380516001836020036101000a031916815260200191505b50965050505050505060405180910390a282965081600160a060020a03166145d4612c53565b600160a060020a0316146040805190810160405280601f81526020017f45564d52554e5f50524f5445435445445f53544154455f4d4f444946494544008152509015156146665760405160e560020a62461bcd02815260040180806020018281038252838181518152602001915080519060200190808383600083811015610cf7578181015183820152602001610cdf565b5080614670611dd8565b60408051808201909152601f81527f45564d52554e5f50524f5445435445445f53544154455f4d4f44494649454400602082015291146146f55760405160e560020a62461bcd02815260040180806020018281038252838181518152602001915080519060200190808383600083811015610cf7578181015183820152602001610cdf565b505050505050509392505050565b600160a060020a03166000908152600891909101602052604090205460ff1690565b60008061473284846138bf565b151561474157600091506135c1565b50600160a060020a038083166000908152600885016020526040902054610100900416801561477057806135be565b509092915050565b600080600160a060020a0383161515614794576000915061176a565b50506000903b1190565b60408051600160a060020a0383166024808301919091528251808303909101815260449091019091526020810180517bffffffffffffffffffffffffffffffffffffffffffffffffffffffff167f70a0823100000000000000000000000000000000000000000000000000000000179052600090818061481e868461567d565b60408051808201909152601c81527f534146455f4552435f32305f42414c414e43455f524556455254454400000000602082015291935091508215156148a95760405160e560020a62461bcd02815260040180806020018281038252838181518152602001915080519060200190808383600083811015610cf7578181015183820152602001610cdf565b5095945050505050565b60408051600160a060020a038416602482015260448082018490528251808303909101815260649091019091526020810180517bffffffffffffffffffffffffffffffffffffffffffffffffffffffff167fa9059cbb0000000000000000000000000000000000000000000000000000000017905260009061493585826156ae565b95945050505050565b8051602002815290565b614950611f62565b60408051808201909152601881527f494e49545f414c52454144595f494e495449414c495a45440000000000000000602082015290156149d55760405160e560020a62461bcd02815260040180806020018281038252838181518152602001915080519060200190808383600083811015610cf7578181015183820152602001610cdf565b50614a0e6149e1612db5565b7febb05b386a8d34882b8711d156f463690983dc47815980fb82aeeff1aa43579e9063ffffffff61321716565b565b60018054808201909155600081815260026020908152604091829020825184815292519093927f011e4fd6859d1a60bf9566bc5400b22aa9950bb088178451fbb9ff71a9410b3692908290030190a19091565b60408051808201909152601581527f564f54494e475f564f54455f54494d455f5a45524f00000000000000000000006020820152600067ffffffffffffffff831611614af45760405160e560020a62461bcd02815260040180806020018281038252838181518152602001915080519060200190808383600083811015610cf7578181015183820152602001610cdf565b50815467ffffffffffffffff821667ffffffffffffffff199091168117835560408051918252517f776dcd10c15e7a1bd4fbb6c824d2a80fa8a40a3a6b401fddc678696b7fb06abe9181900360200190a15050565b815460408051808201909152601f81527f564f54494e475f494e56414c49445f444c47545f564f54455f504552494f440060208201529067ffffffffffffffff9081169083161115614be05760405160e560020a62461bcd02815260040180806020018281038252838181518152602001915080519060200190808383600083811015610cf7578181015183820152602001610cdf565b50815467ffffffffffffffff82167801000000000000000000000000000000000000000000000000810277ffffffffffffffffffffffffffffffffffffffffffffffff90921691909117835560408051918252517f2c2d753fade2041a1abb2972579386f82ae7d7256809c4d44506c4c152fd01eb9181900360200190a15050565b611c4781614cc7565b60048201546000908152600260205260408120614c8884826131c8565b8015614c995750614c9984846137dd565b80156135be575082600160a060020a0316614cb48585614725565b600160a060020a03161415949350505050565b6000614cd28261312a565b9050614cdd8161545d565b60408051808201909152601681527f564f54494e475f564f54455f4e4f545f504155534544000000000000000000006020820152901515614d635760405160e560020a62461bcd02815260040180806020018281038252838181518152602001915080519060200190808383600083811015610cf7578181015183820152602001610cdf565b5060038101805470ff0000000000000000000000000000000019167002000000000000000000000000000000001790556006810154614dae9067ffffffffffffffff16613c80614e72565b60068201805467ffffffffffffffff9290921668010000000000000000026fffffffffffffffff00000000000000001990921691909117905560405182907f342b22decf184652237398af8d345da7d9743ae2e1c4122e7c32899c6a81f9a990600090a25050565b7fffffffff0000000000000000000000000000000000000000000000000000000081167f01ffc9a70000000000000000000000000000000000000000000000000000000014919050565b6000611e03614e6d612db5565b615700565b6000611e03614e6d615459565b6001546000190190565b600080614e946155e0565b905080600160a060020a031663e95fdd1d8686866040518463ffffffff167c0100000000000000000000000000000000000000000000000000000000028152600401808481526020018060200183600160a060020a0316600160a060020a03168152602001828103825284818151815260200191508051906020019080838360005b83811015614f2e578181015183820152602001614f16565b50505050905090810190601f168015614f5b5780820380516001836020036101000a031916815260200191505b50945050505050602060405180830381600087803b15801561267d57600080fd5b805460038301546000918291829182918291614fc79167ffffffffffffffff90811691780100000000000000000000000000000000000000000000000090041663ffffffff61579916565b600688015490945067ffffffffffffffff808216945068010000000000000000909104169150821580159061500f57508367ffffffffffffffff168367ffffffffffffffff16105b6150195783615033565b61503367ffffffffffffffff85168363ffffffff61579916565b90508067ffffffffffffffff16615048615459565b1015979650505050505050565b6000806000806000806150688888615834565b600188015490955061508d9067ffffffffffffffff808816911663ffffffff61546616565b600689015490945067ffffffffffffffff80821694506801000000000000000090910416915082158015906150d557508367ffffffffffffffff168367ffffffffffffffff16105b6150df57836150f9565b6150f967ffffffffffffffff85168363ffffffff61579916565b90508067ffffffffffffffff1661510e615459565b101598975050505050505050565b60006151288484615561565b9050600060068501547801000000000000000000000000000000000000000000000000900460ff16600281111561515b57fe5b14156151c25761516a816153d4565b6006850180547fffffffffffffff00ffffffffffffffffffffffffffffffffffffffffffffffff1678010000000000000000000000000000000000000000000000008360028111156151b857fe5b02179055506116f9565b6151cc848461585b565b67ffffffffffffffff166151de615459565b106116f9576001830154600685015461522b9170010000000000000000000000000000000090910467ffffffffffffffff908116916801000000000000000090041663ffffffff61579916565b60068501805467ffffffffffffffff929092167001000000000000000000000000000000000277ffffffffffffffff0000000000000000000000000000000019909216919091179055604080518215158152905183917fa5e552089c71c91761a836c6c6b8d6ccd0fb1ee4a7362fc3835a8c1c7aafdc1f919081900360200190a250505050565b60408051808201909152601281527f4d4154485f5355425f554e444552464c4f570000000000000000000000000000602082015260009081908484111561533e5760405160e560020a62461bcd02815260040180806020018281038252838181518152602001915080519060200190808383600083811015610cf7578181015183820152602001610cdf565b505050900390565b60408051808201909152601181527f4d4154485f4144445f4f564552464c4f57000000000000000000000000000000602082015260009083830190848210156126ac5760405160e560020a62461bcd02815260040180806020018281038252838181518152602001915080519060200190808383600083811015610cf7578181015183820152602001610cdf565b6000816153e2576002610c0a565b506001919050565b6000806153f7848461585b565b90508067ffffffffffffffff1661540c615459565b108061541e575061541c846158d3565b155b1561542b578091506135c1565b60018301546135be9067ffffffffffffffff838116916801000000000000000090041663ffffffff61579916565b4290565b60006001613b4e565b60408051808201909152601481527f4d41544836345f5355425f554e444552464c4f570000000000000000000000006020820152600090819067ffffffffffffffff808616908516111561533e5760405160e560020a62461bcd02815260040180806020018281038252838181518152602001915080519060200190808383600083811015610cf7578181015183820152602001610cdf565b60008061550c84846153ea565b60018401549091506155459067ffffffffffffffff8084169170010000000000000000000000000000000090041663ffffffff61579916565b67ffffffffffffffff16615557615459565b1015949350505050565b815460018301548254600092919067ffffffffffffffff6801000000000000000082048116917001000000000000000000000000000000009004166155c0846155b0818663ffffffff61534616565b8467ffffffffffffffff166159bc565b8015610d9a5750610d9a8488600201548367ffffffffffffffff166159bc565b6000806155eb6131ec565b6040805180820190915260208082527f44495350555441424c455f41475245454d454e545f53544154455f494e56414c90820152909150600160a060020a038216151561176a5760405160e560020a62461bcd02815260040180806020018281038252838181518152602001915080519060200190808383600083811015610cf7578181015183820152602001610cdf565b6000806000806040516020818751602089018a5afa925060008311156156a257805191505b50909590945092505050565b6000806040516020818551602087016000895af160008111156156f2573d80156156df57602081146156e8576156f0565b600193506156f0565b600183511493505b505b5090949350505050565b9055565b60408051808201909152601581527f55494e5436345f4e554d4245525f544f4f5f4249470000000000000000000000602082015260009067ffffffffffffffff8311156157925760405160e560020a62461bcd02815260040180806020018281038252838181518152602001915080519060200190808383600083811015610cf7578181015183820152602001610cdf565b5090919050565b60408051808201909152601381527f4d41544836345f4144445f4f564552464c4f570000000000000000000000000060208201526000908383019067ffffffffffffffff80861690831610156126ac5760405160e560020a62461bcd02815260040180806020018281038252838181518152602001915080519060200190808383600083811015610cf7578181015183820152602001610cdf565b8054600383015460009161204c9167ffffffffffffffff908116911663ffffffff61579916565b60008061589a8460060160089054906101000a900467ffffffffffffffff166158848686615834565b67ffffffffffffffff169063ffffffff61579916565b60068501549091506135be9067ffffffffffffffff8084169170010000000000000000000000000000000090041663ffffffff61579916565b60068101546000907801000000000000000000000000000000000000000000000000900460ff16818080808085600281111561590b57fe5b141561591a57600095506159b2565b600185600281111561592857fe5b60048901546000908152600260205260409020600181015460068b0154939092149650945067ffffffffffffffff6801000000000000000090910481169170010000000000000000000000000000000090041681151561598457fe5b0467ffffffffffffffff169150600282061515841515141590506159a88784615561565b1515811515141595505b5050505050919050565b6000808315156159cf57600091506126ac565b836159e886670de0b6b3a764000063ffffffff6159fe16565b8115156159f157fe5b0492909211949350505050565b600080831515615a1157600091506135c1565b50828202828482811515615a2157fe5b60408051808201909152601181527f4d4154485f4d554c5f4f564552464c4f57000000000000000000000000000000602082015292919004146126ac5760405160e560020a62461bcd02815260040180806020018281038252838181518152602001915080519060200190808383600083811015610cf7578181015183820152602001610cdf5600a165627a7a7230582049f4301feb6dd6b41607648eab7d8060c0ba30ae26e0ffa37ad140110495a8590029ebb05b386a8d34882b8711d156f463690983dc47815980fb82aeeff1aa43579e",
  "devdoc": {
    "methods": {
      "allowRecoverability(address)": {
        "details": "By default deriving from AragonApp makes it recoverable",
        "params": {
          "token": "Token address that would be recovered"
        },
        "return": "bool whether the app allows the recovery"
      },
      "canChallenge(uint256)": {
        "details": "Tell if a vote can be challenged     Called by the linked Agreement when a challenge is requested for the associated vote",
        "params": {
          "_voteId": "Identification number of the vote being queried"
        },
        "return": "True if the vote can be challenged"
      },
      "canClose(uint256)": {
        "details": "Tell if a vote can be closed     Called by the linked Agreement when the action associated with the vote is requested to be manually closed",
        "params": {
          "_voteId": "Identification number of the vote being queried"
        },
        "return": "True if the vote can be closed"
      },
      "canExecute(uint256)": {
        "details": "Tell if a vote can be executed     Initialization check is implicitly provided by `_getVote()` as new votes can only be     created via `newVote()`, which requires initialization",
        "params": {
          "_voteId": "Identification number of the vote being queried"
        },
        "return": "True if the vote can be executed"
      },
      "canForward(address,bytes)": {
        "details": "Tell if an address can forward actions (by creating a vote)     IForwarderWithContext interface conformance",
        "params": {
          "_evmScript": "EVM script being forwarded",
          "_sender": "Address intending to forward an action"
        },
        "return": "True if the address is allowed create a vote containing the action"
      },
      "canPerform(address,bytes32,uint256[])": {
        "details": "Check whether an action can be performed by a sender for a particular role on this app",
        "params": {
          "_params": "Permission params for the role",
          "_role": "Role on this app",
          "_sender": "Sender of the call"
        },
        "return": "Boolean indicating whether the sender has the permissions to perform the action.        Always returns false if the app hasn't been initialized yet."
      },
      "canRepresentativesVote(uint256)": {
        "details": "Tell if a vote currently allows representatives to vote for delegated voters     Initialization check is implicitly provided by `_getVote()` as new votes can only be     created via `newVote()`, which requires initialization",
        "params": {
          "_voteId": "Vote identifier"
        },
        "return": "True if the vote currently allows representatives to vote"
      },
      "canVote(uint256,address)": {
        "details": "Tell if a voter can participate in a vote     Initialization check is implicitly provided by `_getVote()` as new votes can only be     created via `newVote()`, which requires initialization",
        "params": {
          "_voteId": "Identification number of the vote being queried",
          "_voter": "Address of the voter being queried"
        },
        "return": "True if the voter can participate in the vote"
      },
      "canVoteOnBehalfOf(uint256,address[],address)": {
        "details": "Tell if a representative can vote on behalf of delegated voters in a vote     Initialization check is implicitly provided by `_getVote()` as new votes can only be     created via `newVote()`, which requires initialization",
        "params": {
          "_representative": "Address of the representative being queried",
          "_voteId": "Identification number of the vote being queried",
          "_voters": "Addresses of the delegated voters being queried"
        },
        "return": "True if the representative can vote on behalf of the delegated voters in the vote"
      },
      "changeDelegatedVotingPeriod(uint64)": {
        "params": {
          "_delegatedVotingPeriod": "New delegated voting period"
        }
      },
      "changeExecutionDelay(uint64)": {
        "params": {
          "_executionDelay": "New execution delay"
        }
      },
      "changeMinAcceptQuorumPct(uint64)": {
        "params": {
          "_minAcceptQuorumPct": "New minimum acceptance quorum; expressed as a percentage of 10^18"
        }
      },
      "changeQuietEndingConfiguration(uint64,uint64)": {
        "params": {
          "_quietEndingExtension": "New quiet ending extension",
          "_quietEndingPeriod": "New quiet ending period"
        }
      },
      "changeSupportRequiredPct(uint64)": {
        "params": {
          "_supportRequiredPct": "New required support; expressed as a percentage of 10^18"
        }
      },
      "changeVoteTime(uint64)": {
        "params": {
          "_voteTime": "New vote time"
        }
      },
      "executeVote(uint256,bytes)": {
        "details": "Initialization check is implicitly provided by `_getVote()` as new votes can only be     created via `newVote()`, which requires initialization",
        "params": {
          "_executionScript": "Action (encoded as an EVM script) to be executed, must match the one used when the vote was created",
          "_voteId": "Identification number of the vote"
        }
      },
      "forward(bytes,bytes)": {
        "details": "IForwarderWithContext interface conformance.     This app (as a DisputableAragonApp) is required to be the initial step in the forwarding chain.",
        "params": {
          "_context": "Additional context for the vote, also used as the disputable action's context on the linked Agreement",
          "_evmScript": "Action (encoded as an EVM script) that will be allowed to execute if the vote passes"
        }
      },
      "forwarderType()": {
        "details": "Tell the forwarder type",
        "return": "Always 2 (ForwarderType.WITH_CONTEXT)"
      },
      "getAgreement()": {
        "details": "Tell the linked Agreement",
        "return": "Agreement"
      },
      "getCastVote(uint256,address)": {
        "details": "Tell the state of a voter for a vote     Initialization check is implicitly provided by `_getVote()` as new votes can only be     created via `newVote()`, which requires initialization",
        "params": {
          "_voteId": "Identification number of the vote",
          "_voter": "Address of the voter being queried"
        },
        "return": "state Voter's cast state being queriedcaster Address of the vote's caster"
      },
      "getInitializationBlock()": {
        "return": "Block number in which the contract was initialized"
      },
      "getRecoveryVault()": {
        "details": "Get the recovery vault for the app",
        "return": "Recovery vault address for the app"
      },
      "getSetting(uint256)": {
        "details": "Tell the information for a setting     Initialization check is implicitly provided by `_getSetting()` as new settings can only be     created via `change*()` functions which require initialization",
        "params": {
          "_settingId": "Identification number of the setting"
        },
        "return": "voteTime Base vote durationsupportRequiredPct Required support % (yes power / voted power) for a vote to pass; expressed as a percentage of 10^18minAcceptQuorumPct Required quorum % (yes power / total power) for a vote to pass; expressed as a percentage of 10^18delegatedVotingPeriod Duration of the delegated voting periodquietEndingPeriod Duration to detect non-quiet endingsquietEndingExtension Duration to extend a vote in case of non-quiet endingexecutionDelay Duration to wait before a passed vote can be executed"
      },
      "getVote(uint256)": {
        "details": "Tell the information for a vote     Initialization check is implicitly provided by `_getVote()` as new votes can only be     created via `newVote()`, which requires initialization",
        "params": {
          "_voteId": "Identification number of the vote"
        },
        "return": "yea Voting power fornay Voting power againsttotalPower Total voting power available (based on the snapshot block)startDate Datetime when the vote was createdsnapshotBlock Block number used to check voting power on attached tokenstatus Status of the votesettingId Identification number of the setting applicable to the voteactionId Identification number of the associated disputable action on the linked AgreementpausedAt Datetime when the vote was pausedpauseDuration Duration of the pause (only updated once resumed)quietEndingExtensionDuration Duration a vote was extended due to non-quiet endingsquietEndingSnapshotSupport Snapshot of the vote's support at the beginning of the first quiet ending periodexecutionScriptHash Hash of the EVM script attached to the vote"
      },
      "hasInitialized()": {
        "return": "Whether the contract has been initialized by the time of the current block"
      },
      "initialize(address,uint64,uint64,uint64,uint64,uint64,uint64,uint64)": {
        "params": {
          "_delegatedVotingPeriod": "Duration from the start of a vote that representatives are allowed to vote on behalf of principals",
          "_executionDelay": "Duration to wait before a passed vote can be executed",
          "_minAcceptQuorumPct": "Required quorum % (yes power / total power) for a vote to pass; expressed as a percentage of 10^18",
          "_quietEndingExtension": "Duration to extend a vote in case of non-quiet ending",
          "_quietEndingPeriod": "Duration to detect non-quiet endings",
          "_supportRequiredPct": "Required support % (yes power / voted power) for a vote to pass; expressed as a percentage of 10^18",
          "_token": "MiniMeToken Address that will be used as governance token",
          "_voteTime": "Base duration a vote will be open for voting"
        }
      },
      "isForwarder()": {
        "details": "Report whether the implementing app is a forwarder     Required for backwards compatibility with aragonOS 4",
        "return": "Always true"
      },
      "isRepresentativeOf(address,address)": {
        "details": "Tell if a representative currently represents another voter",
        "params": {
          "_representative": "Address of the representative being queried",
          "_voter": "Address of the delegated voter being queried"
        },
        "return": "True if the representative currently represents the voter"
      },
      "isVoteOpenForVoting(uint256)": {
        "details": "Tell if a vote is open for voting     Initialization check is implicitly provided by `_getVote()` as new votes can only be     created via `newVote()`, which requires initialization",
        "params": {
          "_voteId": "Identification number of the vote being queried"
        },
        "return": "True if the vote is open for voting"
      },
      "newVote(bytes,bytes)": {
        "params": {
          "_context": "Additional context for the vote, also used as the disputable action's context on the linked Agreement",
          "_executionScript": "Action (encoded as an EVM script) that will be allowed to execute if the vote passes"
        },
        "return": "Identification number of the newly created vote"
      },
      "onDisputableActionAllowed(uint256)": {
        "details": "This hook must be implemented by Disputable apps. We provide a base implementation to ensure that the `onlyAgreement` modifier     is included. Subclasses should implement the internal implementation of the hook.",
        "params": {
          "_disputableActionId": "Identifier of the action to be allowed"
        }
      },
      "onDisputableActionChallenged(uint256,uint256,address)": {
        "details": "This hook must be implemented by Disputable apps. We provide a base implementation to ensure that the `onlyAgreement` modifier     is included. Subclasses should implement the internal implementation of the hook.",
        "params": {
          "_challengeId": "Identifier of the challenge in the context of the Agreement",
          "_challenger": "Address that submitted the challenge",
          "_disputableActionId": "Identifier of the action to be challenged"
        }
      },
      "onDisputableActionRejected(uint256)": {
        "details": "This hook must be implemented by Disputable apps. We provide a base implementation to ensure that the `onlyAgreement` modifier     is included. Subclasses should implement the internal implementation of the hook.",
        "params": {
          "_disputableActionId": "Identifier of the action to be rejected"
        }
      },
      "onDisputableActionVoided(uint256)": {
        "details": "This hook must be implemented by Disputable apps. We provide a base implementation to ensure that the `onlyAgreement` modifier     is included. Subclasses should implement the internal implementation of the hook.",
        "params": {
          "_disputableActionId": "Identifier of the action to be voided"
        }
      },
      "setAgreement(address)": {
        "params": {
          "_agreement": "Agreement instance to be set"
        }
      },
      "setRepresentative(address)": {
        "params": {
          "_representative": "Address of the representative who is allowed to vote on behalf of the sender. Use the zero address for none."
        }
      },
      "supportsInterface(bytes4)": {
        "details": "Query if a contract implements a certain interface",
        "params": {
          "_interfaceId": "The interface identifier being queried, as specified in ERC-165"
        },
        "return": "True if the contract implements the requested interface and if its not 0xffffffff, false otherwise"
      },
      "transferToVault(address)": {
        "params": {
          "_token": "Token balance to be sent to recovery vault."
        }
      },
      "vote(uint256,bool)": {
        "details": "Initialization check is implicitly provided by `_getVote()` as new votes can only be     created via `newVote()`, which requires initialization",
        "params": {
          "_supports": "Whether voter supports the vote",
          "_voteId": "Identification number of the vote"
        }
      },
      "voteOnBehalfOf(uint256,bool,address[])": {
        "details": "Initialization check is implicitly provided by `_getVote()` as new votes can only be     created via `newVote()`, which requires initialization",
        "params": {
          "_supports": "Whether the representative supports the vote",
          "_voteId": "Identification number of the vote",
          "_voters": "Addresses of the delegated voters to vote on behalf of"
        }
      }
    }
  },
  "userdoc": {
    "methods": {
      "changeDelegatedVotingPeriod(uint64)": {
        "notice": "Change delegated voting period to `@transformTime(_delegatedVotingPeriod)`"
      },
      "changeExecutionDelay(uint64)": {
        "notice": "Change execution delay to `@transformTime(_executionDelay)`"
      },
      "changeMinAcceptQuorumPct(uint64)": {
        "notice": "Change minimum acceptance quorum to `@formatPct(_minAcceptQuorumPct)`%"
      },
      "changeQuietEndingConfiguration(uint64,uint64)": {
        "notice": "Change quiet ending period to `@transformTime(_quietEndingPeriod)` with extensions of `@transformTime(_quietEndingExtension)`"
      },
      "changeSupportRequiredPct(uint64)": {
        "notice": "Change required support to `@formatPct(_supportRequiredPct)`%"
      },
      "changeVoteTime(uint64)": {
        "notice": "Change vote time to `@transformTime(_voteTime)`"
      },
      "executeVote(uint256,bytes)": {
        "notice": "Execute vote #`_voteId`"
      },
      "forward(bytes,bytes)": {
        "notice": "Create a vote to execute the desired action"
      },
      "initialize(address,uint64,uint64,uint64,uint64,uint64,uint64,uint64)": {
        "notice": "Initialize Disputable Voting with `_token.symbol(): string` for governance, a voting duration of `@transformTime(_voteTime)`, minimum support of `@formatPct(_supportRequiredPct)`%, minimum acceptance quorum of `@formatPct(_minAcceptQuorumPct)`%, a delegated voting period of `@transformTime(_delegatedVotingPeriod), and a execution delay of `@transformTime(_executionDelay)`"
      },
      "newVote(bytes,bytes)": {
        "notice": "Create a new vote about \"`_context`\""
      },
      "onDisputableActionAllowed(uint256)": {
        "notice": "Allow disputable action #`_disputableActionId`"
      },
      "onDisputableActionChallenged(uint256,uint256,address)": {
        "notice": "Challenge disputable action #`_disputableActionId`"
      },
      "onDisputableActionRejected(uint256)": {
        "notice": "Reject disputable action #`_disputableActionId`"
      },
      "onDisputableActionVoided(uint256)": {
        "notice": "Void disputable action #`_disputableActionId`"
      },
      "setAgreement(address)": {
        "notice": "Set Agreement to `_agreement`"
      },
      "setRepresentative(address)": {
        "notice": "`_representative == 0x0 ? 'Set your voting representative to ' + _representative : 'Remove your representative'`"
      },
      "transferToVault(address)": {
        "notice": "Send funds to recovery Vault. This contract should never receive funds,        but in case it does, this function allows one to recover them."
      },
      "vote(uint256,bool)": {
        "notice": "Vote `_supports ? 'yes' : 'no'` in vote #`_voteId`"
      },
      "voteOnBehalfOf(uint256,bool,address[])": {
        "notice": "Vote `_supports ? 'yes' : 'no'` in vote #`_voteId` on behalf of delegated voters"
      }
    }
  }
}